:1000000009C0F8C020C017C11EC01DC01CC01BC045
:100010001AC019C011241FBECFE9CDBF10E0A0E661
:10002000B0E0EEEDF2E002C005900D92AA36B10705
:10003000D9F710E0AAE6B0E001C01D92AD36B107D5
:10004000E1F720D14AC1DCCF282F98E080E048E1D9
:10005000382F3227532F517030FD84278695513029
:1000600009F48068915011F02695F2CF089588EE3A
:1000700093E002C0019711F0B199FCCF80E48A951A
:10008000F1F781E0B19B80E020E030E006C02F5F17
:100090003F4F93E0283E390711F0B19BF8CF089508
:1000A0000F931F9388EE93E002C0019711F0B19B6C
:1000B000FCCF08E010E01695DADF811110680150DE
:1000C000D1F7812F1F910F91089528EE33E003C0DF
:1000D0002150304011F0B199FBCFB998882309F431
:1000E000B99A80EC8A95F1F7B99888EE93E002C04E
:1000F000019711F0B19BFCCF08950F931F93082F28
:1001000028EE33E003C02150304011F0B19BFBCF0B
:1001100018E0802F8170D9DF06951150D1F71F911B
:100120000F910895DF92EF92FF920F931F93CF9359
:10013000DF9388EE93E002C0019711F0B19BFCCFF2
:1001400080E68A95F1F7B99A80EF90E00197F1F790
:10015000B99888EE93E002C0019711F0B19BFCCFF3
:100160009FDF8C3E29F0803F19F08535D9F522C0FC
:10017000803F21F080916A008823A1F110E0DD2406
:10018000D394E12FF0E0E05AFF4FF08008E0EE2436
:10019000E394EF208E2D99DF8E2D8D2596DF67DF7E
:1001A0008E1501F5015011F0F694F1CF1F5F183054
:1001B00041F718C0C0E6D0E073DF9991891791F438
:1001C00090E0C836D907C1F76BDF803A59F4109137
:1001D0006C00812F39DF082F812F8FDF802F8DDF7B
:1001E00010926A00DF91CF911F910F91FF90EF90D5
:1001F000DF9008951F920F920FB60F9211248F93E4
:1002000005B600FE07C013BE88B7826088BF82E0D3
:1002100085BF0BC083EC82BF88B7826088BF89B777
:10022000826089BF83E085BF83BF8F910F900FBE2F
:100230000F901F9018951F920F920FB60F921124D6
:100240002F933F934F935F936F937F938F939F93DE
:10025000AF93BF93EF93FF9313BE88B7826088BFBD
:1002600061DFFF91EF91BF91AF919F918F917F914E
:100270006F915F914F913F912F910F900FBE0F9013
:100280001F901895CF93DF9317BA18BAC0E6D0E045
:1002900080E099918927D8DE90E0C736D907C9F761
:1002A00080936700B99888B7826088BF8AB78064F6
:1002B0008ABF82E085BF8BB780648BBF7894209122
:1002C000680091E030916C0086B382233817E1F327
:0E02D00080936C0090936A00F5CFF894FFCFF6
:0A02DE00F2000000000005001D0002
:00000001FF
