:1000000009C003C120C022C11EC01DC01CC01BC02E
:100010001AC019C011241FBECFE9CDBF10E0A0E661
:10002000B0E0E8EFF3E002C005900D92A836B1070A
:10003000D9F710E0A8E6B0E001C01D92A037B107E3
:10004000E1F7A7D1D7C1DCCF282F98E080E048E1C5
:10005000382F3227532F517030FD84278695513029
:1000600009F48068915011F02695F2CF089588EE3A
:1000700093E002C0019711F0B199FCCF80E48A951A
:10008000F1F781E0B19B80E020E030E006C02F5F17
:100090003F4F93E0283E390711F0B19BF8CF089508
:1000A0000F931F9388EE93E002C0019711F0B19B6C
:1000B000FCCF08E010E01695DADF811110680150DE
:1000C000D1F7812F1F910F91089528EE33E003C0DF
:1000D0002150304011F0B199FBCFB998882309F431
:1000E000B99A80EC8A95F1F7B99888EE93E002C04E
:1000F000019711F0B19BFCCF08950F931F93082F28
:1001000028EE33E003C02150304011F0B19BFBCF0B
:1001100018E0802F8170D9DF06951150D1F71F911B
:100120000F910895DF92EF92FF920F931F93CF9359
:10013000DF9388EE93E002C0019711F0B19BFCCFF2
:1001400020E62A95F1F7B99A80EF90E00197F1F750
:10015000B99880E090E005C0019623E0883E9207C0
:1001600011F0B19BF9CF9CDF8C3E31F0803F21F044
:10017000853509F042C023C0803F21F0809168009E
:100180008823D9F110E0DD24D394E12FF0E0E05A88
:10019000FF4FF08000E0EE24E394EF208E2D95DFFA
:1001A0008E2D8D2592DF63DF8E1539F50F5F0830B8
:1001B00011F0F694F0CF1F5F183039F71EC0C0E67B
:1001C000D0E06EDF99918917C1F480E0C836D80776
:1001D000C1F766DF803A89F4109268008091690067
:1001E0008CDF8091690030DF182F80916A0085DFF5
:1001F00080916A00812728DF80DFDF91CF911F91F6
:100200000F91FF90EF90DF9008951F920F920FB61D
:100210000F9211248F9305B600FE07C013BE88B756
:10022000826088BF82E085BF0BC083EC82BF88B745
:10023000826088BF89B7826089BF83E085BF83BF42
:100240008F910F900FBE0F901F9018951F920F92D5
:100250000FB60F9211242F933F934F935F936F9399
:100260007F938F939F93AF93BF93EF93FF9313BEAF
:1002700088B7826088BF56DFFF91EF91BF91AF9141
:100280009F918F917F916F915F914F913F912F91AE
:100290000F900FBE0F901F901895BB9AC3988FEBCD
:1002A00098EA0197F1F700C00000C39A90E89A9588
:1002B000F1F7BB9840E84A95F1F7B39969C08FEB25
:1002C00090E00197F1F700C00000B39B61C084E6A5
:1002D0000BC093E09A95F1F70000815029F4EBE60A
:1002E000F0E021E030E003C0B399F3CFF8CF108203
:1002F00087E090E026C053E05A95F1F700004150A6
:1003000011F0B39BF8CF40E84A95F1F7B39B0AC0D0
:10031000A901082E02C0440F551F0A94E2F760811C
:10032000642B608344E606C053E05A95F1F7000061
:10033000415011F0B399F8CF01974FEF8F3F9407D9
:1003400011F044E6DECF319650E0E037F50779F65C
:1003500050916B0040916D0060916F00852F90E08F
:10036000840F911D262F30E08217930789F46623AE
:1003700079F080916900581721F480916A0048173C
:1003800039F05093690040936A0081E080936800DF
:100390000895CF93DF93C0E6D0E080E0999189275C
:1003A00053DE90E0C736D907C9F7809367008FEF17
:1003B00087BBB99888B7826088BF8AB780648ABFD4
:1003C00082E085BF8BB780648BBFAFEBBDE5119733
:1003D000F1F700C00000F894C09A5FDFC0987894ED
:1003E0008FEF97EDA8EBB5E081509040A040B04072
:0803F000D9F7EFCFF894FFCF1D
:0803F800F30000000000070003
:00000001FF
