:1000000009C03FC118C05EC116C015C014C013C0DE
:1000100012C011C011241FBECFE9CDBF10E0A0E671
:10002000B0E0E2E5F3E002C005900D92A836B1071A
:10003000D9F76FD18CC1E4CF282F98E080E048E158
:10004000382F3227532F517030FD84278695513039
:1000500009F48068915011F02695F2CF089588EE4A
:1000600093E002C0019711F0B199FCCF80E48A952A
:10007000F1F781E0B19B80E020E030E006C02F5F27
:100080003F4F93E0283E390711F0B19BF8CF089518
:100090000F931F9388EE93E002C0019711F0B19B7C
:1000A000FCCF08E010E01695DADF811110680150EE
:1000B000D1F7812F1F910F91089528EE33E003C0EF
:1000C0002150304011F0B199FBCFB998882309F441
:1000D000B99A80EC8A95F1F7B99888EE93E002C05E
:1000E000019711F0B19BFCCF08950F931F93082F38
:1000F00028EE33E003C02150304011F0B19BFBCF1C
:1001000018E0802F8170D9DF06951150D1F71F912B
:100110000F910895CF92DF92EF92FF920F931F936A
:10012000DF93CF93CDB7DEB7C450CDBF88EE93E059
:1001300002C0019711F0B19BFCCF80E68A95F1F7E0
:10014000B99AE0EFF0E03197F1F7B99888EE93E0D3
:1001500002C0019711F0B19BFCCF9ADF853509F100
:10016000803F09F083C000E610E0CC24C394F8017E
:10017000D1908F0128E0E22EFF24F394FD208F2DF3
:100180009CDF8F2D8C2599DF6ADF8F1509F06EC0FB
:10019000EA9411F0D694F0CFF0E008361F0739F753
:1001A00065C000E610E074DFF80191918F018917B6
:1001B00009F05CC0F0E008361F07A9F769DF803A54
:1001C00021F0803B09F052C023C088B38870898336
:1001D00088B380718A8388B381708B8388B384707D
:1001E0008C838E010F5F1F4F95E0E92EF12CEC0EF2
:1001F000FD1EDD24F801C1908F018C2D76DF8D2D41
:100200008C251ADFD82E0E151F05A1F76EDF2EC024
:100210008E010F5F1F4F85E0E82EF12CEC0EFD1EC6
:10022000DD2436DFF80181938F018D2505DFD82E7F
:100230000E151F05B1F72CDF8D15C1F489818823B8
:1002400011F0C39A01C0C3988A81882311F0C49A1F
:1002500001C0C4988B81882311F0C09A01C0C09856
:100260008C81882311F0C29A01C0C298CC5FCDBFA7
:10027000CF91DF911F910F91FF90EF90DF90CF9082
:1002800008951F920F920FB60F9211248F9305B607
:1002900000FE07C013BE88B7826088BF82E085BFBA
:1002A0000BC083EC82BF88B7826088BF89B7826049
:1002B00089BF83E085BF83BF8F910F900FBE0F90E2
:1002C0001F9018951F920F920FB60F9211242F9323
:1002D0003F934F935F936F937F938F939F93AF93CE
:1002E000BF93EF93FF9313BE88B7826088BF12DF7E
:1002F000FF91EF91BF91AF919F918F917F916F91FE
:100300005F914F913F912F910F900FBE0F901F90D3
:100310001895CF93DF93C0E6D0E080E099918927CC
:100320008BDE90E0C736D907C9F780936700B9988C
:1003300088B7826088BF8AB780648ABF82E085BF41
:100340008BB780648BBF78948DE187BBFFCFF89427
:02035000FFCFDD
:08035200F100000000010100B0
:00000001FF
