:1000000009C02DC120C04CC11EC01DC01CC01BC0DA
:100010001AC019C011241FBECFE9CDBF10E0A0E661
:10002000B0E0EAE7F3E002C005900D92A836B10710
:10003000D9F710E0A8E6B0E001C01D92AC36B107D8
:10004000E1F755D198C1DCCF282F98E080E048E156
:10005000382F3227532F517030FD84278695513029
:1000600009F48068915011F02695F2CF089588EE3A
:1000700093E002C0019711F0B199FCCF80E48A951A
:10008000F1F781E0B19B80E020E030E006C02F5F17
:100090003F4F93E0283E390711F0B19BF8CF089508
:1000A0000F931F9388EE93E002C0019711F0B19B6C
:1000B000FCCF08E010E01695DADF811110680150DE
:1000C000D1F7812F1F910F91089528EE33E003C0DF
:1000D0002150304011F0B199FBCFB998882309F431
:1000E000B99A80EC8A95F1F7B99888EE93E002C04E
:1000F000019711F0B19BFCCF08950F931F93082F28
:1001000028EE33E003C02150304011F0B19BFBCF0B
:1001100018E0802F8170D9DF06951150D1F71F911B
:100120000F910895CF92DF92EF92FF920F931F935A
:10013000DF93CF93CDB7DEB7C450CDBF80E090E062
:1001400005C0019623E0883E920711F0B19BF9CFDC
:1001500080E68A95F1F7B99AE0EFF0E03197F1F790
:10016000B99888EE93E002C0019711F0B19BFCCFE3
:1001700097DF853509F1803F09F066C000E610E0A1
:10018000CC24C394F801D1908F0198E0E92EFF248C
:10019000F394FD208F2D99DF8F2D8C2596DF67DF5F
:1001A0008F1509F051C0EA9411F0D694F0CFF0E029
:1001B00008361F0739F748C000E610E071DFF80184
:1001C00091918F01891709F03FC0F0E008361F07B1
:1001D000A9F766DF803A19F0803BB1F513C008E655
:1001E00010E0DD247801F80181918F0186DFF701AD
:1001F00080818D2529DFD82EF0E00C361F0791F77E
:100200007CDF22C08E010F5F1F4F85E0E82EF12CAE
:10021000EC0EFD1EDD2444DFF80181938F018D2556
:1002200013DFD82E0E151F05B1F73ADF8D1561F4D7
:100230008981809368008A81809369008B81809393
:100240006A008C8180936B00CC5FCDBFCF91DF9132
:100250001F910F91FF90EF90DF90CF9008951F9224
:100260000F920FB60F9211248F9305B600FE07C0B0
:1002700013BE88B7826088BF82E085BF0BC083EC65
:1002800082BF88B7826088BF89B7826089BF83E0F8
:1002900085BF83BF8F910F900FBE0F901F90189551
:1002A0001F920F920FB60F9211242F933F934F93EB
:1002B0005F936F937F938F939F93AF93BF93EF93CE
:1002C000FF9313BE88B7826088BF2CDFFF91EF9148
:1002D000BF91AF919F918F917F916F915F914F915E
:1002E0003F912F910F900FBE0F901F901895CF93B5
:1002F000DF93C0E6D0E080E099918927A5DE90E009
:10030000C736D907C9F780936700B99888B7826064
:1003100088BF8AB780648ABF82E085BF8BB780645C
:100320008BBF78948DE187BB80E09091680089173E
:1003300010F4C49A01C0C49890916900891710F410
:10034000C39A01C0C39890916A00891710F4C09AAB
:1003500001C0C09890916B00891710F4C29A01C037
:10036000C298EFEBFDE53197F1F700C000008F5F19
:0A0370008A30D0F6DACFF894FFCF00
:08037A00F10000000000010089
:00000001FF
