:1000000009C00EC120C02DC11EC01DC01CC01BC018
:100010001AC019C011241FBECFE9CDBF10E0A0E661
:10002000B0E0E8E9F3E002C005900D92A836B10710
:10003000D9F710E0A8E6B0E001C01D92AD36B107D7
:10004000E1F736D1A7C1DCCF282F98E080E048E166
:10005000382F3227532F517030FD84278695513029
:1000600009F48068915011F02695F2CF089588EE3A
:1000700093E002C0019711F0B199FCCF80E48A951A
:10008000F1F781E0B19B80E020E030E006C02F5F17
:100090003F4F93E0283E390711F0B19BF8CF089508
:1000A0000F931F9388EE93E002C0019711F0B19B6C
:1000B000FCCF08E010E01695DADF811110680150DE
:1000C000D1F7812F1F910F91089528EE33E003C0DF
:1000D0002150304011F0B199FBCFB998882309F431
:1000E000B99A80EC8A95F1F7B99888EE93E002C04E
:1000F000019711F0B19BFCCF08950F931F93082F28
:1001000028EE33E003C02150304011F0B19BFBCF0B
:1001100018E0802F8170D9DF06951150D1F71F911B
:100120000F910895BF92CF92DF92EF92FF920F93BB
:100130001F93CF93DF9388EE93E002C0019711F0F5
:10014000B19BFCCF80E68A95F1F7B99A80EF90E0F9
:100150000197F1F7B99888EE93E002C0019711F08A
:10016000B19BFCCF9DDF8C3E31F0803F21F0853587
:1001700009F04CC023C0803F29F080916C00882397
:1001800009F444C010E0CC24C394E12FF0E0E05A1D
:10019000FF4FE08008E0DD24D394DE208D2D95DF35
:1001A0008D2D8C2592DF63DF8D1581F5015011F0C7
:1001B000E694F1CF1F5F183041F728C0C0E6D0E0C9
:1001C0006FDF9991891711F590E0C836D907C1F70B
:1001D00067DF803AD9F410926C00E0906800F090EC
:1001E000690000916A0010916B0094E0C92EDD2433
:1001F0008E2D83DF8E2D8D2527DFD82EEF2CF02E30
:10020000012F1127CA94A1F78D2D77DFDF91CF91B0
:100210001F910F91FF90EF90DF90CF90BF900895C6
:100220001F920F920FB60F9211248F9305B600FE06
:1002300007C013BE88B7826088BF82E085BF0BC04D
:1002400083EC82BF88B7826088BF89B7826089BF2C
:1002500083E085BF83BF8F910F900FBE0F901F90DB
:1002600018951F920F920FB60F9211242F933F9360
:100270004F935F936F937F938F939F93AF93BF93AE
:10028000EF93FF9313BE88B7826088BF4BDFFF9167
:10029000EF91BF91AF919F918F917F916F915F91FE
:1002A0004F913F912F910F900FBE0F901F90189577
:1002B000CF93DF93C0E6D0E080E099918927C4DE38
:1002C00090E0C736D907C9F7809367008FEF87BBE7
:1002D000BC9886B1876C86B982E687B9B99888B729
:1002E000826088BF8AB780648ABF82E085BF8BB78F
:1002F00080648BBF8FEB9DE50197F1F700C0000094
:100300007894E1E0C39B02C0C39801C0C39A1092E5
:1003100068001092690010926A0010926B0020E150
:1003200037E2369A3699FECF65B1862F90E070E0BD
:100330001FD0AC01662757FD6095762F809168002D
:1003400090916900A0916A00B0916B00840F951F95
:10035000A61FB71F8093680090936900A0936A005E
:10036000B0936B0021503040E1F6E0936C00CACFAF
:100370005527002480FF02C0060E571F660F771F07
:100380006115710521F096958795009799F7952F3E
:08039000802D0895F894FFCFC1
:08039800F50000000000010067
:00000001FF
