:1000000009C003C120C022C11EC01DC01CC01BC02E
:100010001AC019C011241FBECFE9CDBF10E0A0E661
:10002000B0E0E2E4F3E002C005900D92A836B1071B
:10003000D9F710E0A8E6B0E001C01D92AB36B107D9
:10004000E1F72BD17CC1DCCF282F98E080E048E19C
:10005000382F3227532F517030FD84278695513029
:1000600009F48068915011F02695F2CF089588EE3A
:1000700093E002C0019711F0B199FCCF80E48A951A
:10008000F1F781E0B19B80E020E030E006C02F5F17
:100090003F4F93E0283E390711F0B19BF8CF089508
:1000A0000F931F9388EE93E002C0019711F0B19B6C
:1000B000FCCF08E010E01695DADF811110680150DE
:1000C000D1F7812F1F910F91089528EE33E003C0DF
:1000D0002150304011F0B199FBCFB998882309F431
:1000E000B99A80EC8A95F1F7B99888EE93E002C04E
:1000F000019711F0B19BFCCF08950F931F93082F28
:1001000028EE33E003C02150304011F0B19BFBCF0B
:1001100018E0802F8170D9DF06951150D1F71F911B
:100120000F910895DF92EF92FF920F931F93CF9359
:10013000DF9388EE93E002C0019711F0B19BFCCFF2
:1001400020E62A95F1F7B99A80EF90E00197F1F750
:10015000B99880E090E005C0019623E0883E9207C0
:1001600011F0B19BF9CF9CDF8C3E31F0803F21F044
:10017000853509F042C023C0803F21F0809168009E
:100180008823D9F110E0DD24D394E12FF0E0E05A88
:10019000FF4FF08000E0EE24E394EF208E2D95DFFA
:1001A0008E2D8D2592DF63DF8E1539F50F5F0830B8
:1001B00011F0F694F0CF1F5F183039F71EC0C0E67B
:1001C000D0E06EDF99918917C1F480E0C836D80776
:1001D000C1F766DF803A89F4109268008091690067
:1001E0008CDF8091690030DF182F80916A0085DFF5
:1001F00080916A00812728DF80DFDF91CF911F91F6
:100200000F91FF90EF90DF9008951F920F920FB61D
:100210000F9211248F9305B600FE07C013BE88B756
:10022000826088BF82E085BF0BC083EC82BF88B745
:10023000826088BF89B7826089BF83E085BF83BF42
:100240008F910F900FBE0F901F9018951F920F92D5
:100250000FB60F9211242F933F934F935F936F9399
:100260007F938F939F93AF93BF93EF93FF9313BEAF
:1002700088B7826088BF56DFFF91EF91BF91AF9141
:100280009F918F917F916F915F914F913F912F91AE
:100290000F900FBE0F901F901895CF93DF93C0E67D
:1002A000D0E080E099918927CFDE40E0C736D407BF
:1002B000C9F7809367008FEF87BBBA9886B1876CC8
:1002C00086B981E087B9B99888B7826088BF8AB754
:1002D00080648ABF82E085BF8BB780648BBF7894CF
:1002E00031E0C09A8FEF95ECAEE3B5E081509040DD
:1002F000A040B040D9F700C00000369A3699FECF32
:1003000084B195B19093690080936A00309368003E
:1003100080E99FE5A1E0B0E010C02A3110F4C09A56
:1003200001C0C09849E14A95F1F700C02F5F24361B
:10033000A1F70197A109B109A1F220E0EECFF8944D
:02034000FFCFED
:08034200F400000000000100BE
:00000001FF
